:020000040800F2
:10000000981100204901000805230008451C00083C
:1000100061220008A11100080F2F00080000000055
:100020000000000000000000000000008127000820
:100030000D13000800000000AD23000899280008F7
:100040006301000863010008630100086301000800
:1000500063010008630100086301000863010008F0
:1000600063010008630100086301000863010008E0
:1000700063010008630100086301000863010008D0
:1000800063010008630100089D0A0008630100087D
:1000900063010008630100086301000863010008B0
:1000A00063010008630100086301000863010008A0
:1000B000F1280008A729000863010008630100086F
:1000C0006301000863010008630100086301000880
:1000D00063010008192B000863010008A12B000828
:1000E0006D1A00086301000863010008630100083D
:1000F0006301000863010008630100086301000850
:10010000630100086301000863010008630100083F
:10011000630100086301000863010008630100082F
:10012000630100086301000863010008630100081F
:10013000DFF810D000F03EFC004800474D3B0008BF
:10014000AFF300809811002006488047064800471A
:10015000FEE7FEE7FEE7FEE7FEE7FEE7FEE7FEE777
:10016000FEE7FEE79D28000831010008D2B201E059
:1001700000F8012B491EFBD270470022F6E710B5AC
:1001800013460A4604461946FFF7F0FF204610BD05
:1001900030B505462A460B4612F8010B13F8014B01
:1001A00008B1A042F8D01CB1002802D06D1CF1E7C4
:1001B000284630BD034611F8012B00F8012B002A18
:1001C000F9D118467047F0B480EA0102D40F42001A
:1001D000B2EB410F02D20246084611464A0042D015
:1001E000C30DDDB2C1F3C752AD1A202D35DAC1F30C
:1001F000160141F4000204B15242C5F1200602FA90
:1002000006F12A411044B3EBD05F23D0C4B1012DD5
:10021000A0EBC35009DCF0BC4FF0004202EAC3522D
:10022000DBB200F5000000F0F2BA400000F180708F
:1002300000EBC350A0F1807040EAD170490009E0A2
:10024000490841EAC071A0EBC35000F50000400826
:1002500000EBC350F0BC00F0D1BA6142012202EBC6
:100260004101001BF6E7F0BC704781F00041AAE7AE
:1002700080F00040A7E780EA010210B502F00043D9
:10028000400022D04A001FD0010E01EB1261C0F3E2
:100290005600C2F3560240F4000042F40002A0FBF4
:1002A000022000047F39140400D0401C50EA1240A0
:1002B00001D44000491EC2B20C0604EBD010401C11
:1002C0004008802A02D003E0002010BD20F0010089
:1002D000002900DA0020184310BD30B480EA010282
:1002E00002F0004530F0004221F0004013D090B100
:1002F000C30DD40DC2F31601C0F31600E41A41F485
:10030000000140F400027D34914201D3641C00E0FE
:100310004900002C02DA30BC002070474FF4000086
:100320000023914201D3891A034340084FEA410157
:10033000F7D151B1914202D14FF0004105E002D214
:100340004FF0010101E06FF0010103EBC4502844BC
:1003500030BC00F053BA2DE9FE4F804681EA03001D
:10036000C00F0C46009021F0004123F00045B8EB8F
:100370000200A94105D24046214690461C460B4644
:10038000024623F00040104347D0270DC7F30A0070
:10039000C3F30A510290401A019040286BDAC3F36C
:1003A000130040F4801B0098924620B10023D2EB4A
:1003B000030A63EB0B0B01985946C0F1400250460B
:1003C00000F0FBF906460D4650465946019A00F0EA
:1003D00003FA10EB08006141002487EA115284EA15
:1003E000E7731A4340D0009A62B3019A012A4FEA98
:1003F000075215DC001B61EB02014FF0004202EADC
:100400000752CDE90042001C41F5801132462B46CF
:1004100000F03AFA03B0BDE8F08F40462146F9E714
:10042000001B61EB0201001C41F5801300185B41C9
:100430002018A2F5001747EB030140EAD570B61962
:100440006D4111E06D084FEA360645EAC0754FEA86
:100450000752001B61EB0201001C41F580114908A5
:100460004FEA30000019514132462B4603B0BDE837
:10047000F04F00F0FAB90098012240000023D0EBC1
:10048000020263EBE073009821464FEAE074B8EB98
:10049000000061EB0401E9E783F000435BE781F0D2
:1004A000004158E72DE9FE4F81EA030404F00044BF
:1004B00021F0004100944FF0000B23F0004350EA7C
:1004C00001045ED052EA03045BD0C3F30A54C1F3C3
:1004D0000A552C44A4F2F3340194A0FB0254C1F356
:1004E000130141F48011C3F3130343F4801301FBA0
:1004F000024400FB034E840A970A44EA815447EA07
:100500008357A4FB076802958D0A05FB07854FEA10
:10051000932C04FB0C542705029D4FEA065847EA2A
:100520001637B5EB08056EEB070C870E920E47EAFF
:10053000811742EA8312A7FB0201B6EB0B0164EBC1
:1005400000042B0D43EA0C335E1844EB1C50DA46D2
:100550005146E7FB0201C5F313044FEA0B3343EAAC
:1005600014534FEA0432019C43EA0603A4F10C043D
:100570000294009CCDE900B400F086F903B0BDE818
:10058000F08F00200146F9E72DE9F04D81EA0304E0
:1005900004F0004B21F0004514464FF0000A23F010
:1005A000004150EA050220D054EA01021DD0C5F3F3
:1005B0000A570246C5F31303C1F31300C1F30A56E9
:1005C00040F4801543F48013A7EB0608101BD646B1
:1005D00008F2FD3873EB050002D308F1010801E0D1
:1005E00092185B41B8F1000F03DA00200146BDE824
:1005F000F08D00204FF48011064684460EE0171B54
:1006000073EB050705D3121B63EB050306434CEAA6
:10061000010C49084FEA300092185B4150EA01078B
:10062000EDD152EA030012D082EA040083EA050108
:10063000084305D0101BAB4106D20122002306E07F
:1006400000224FF0004302E06FF0010253101AEB5A
:1006500006004CEB085110EB0A0041EB0B01BDE822
:10066000F04D00F002B9C10F80EAE0700844CA07FB
:100670009623002100F0CBB896230022114600F00B
:10068000C6B80EB5C10F80EAE0700844CA07002161
:1006900040F233438DE80E000A460B4600F0F4F8B2
:1006A00003B000BD00F0004230F000400AD0C10DA0
:1006B00001F56071C0F3160042EA0151C20840071B
:1006C0001143704700200146704701F0004330B4E9
:1006D00021F0004150EA010206D00A0DA2F5607235
:1006E000C1F31301002A02DC30BC00207047440F24
:1006F00044EAC104C100E01830BC00EBC25000F075
:100700007DB80000002801DBC0F10040002901DBBA
:10071000C1F1004181427047002801DBC0F1004077
:10072000002901DBC1F100418842704730B50B461A
:10073000014600202022012409E021FA02F59D4211
:1007400005D303FA02F5491B04FA02F52844151EE5
:10075000A2F10102F1DC30BD2DE9F05F0546002079
:1007600092469B4688460646814640241BE0284622
:1007700041464746224600F02FF953465A46C01AD2
:10078000914110D311461846224600F016F82D1A52
:1007900067EB01084F4622460120002100F00DF8CA
:1007A00017EB00094E41201EA4F10104DFDC48468E
:1007B00031462A464346BDE8F09F202A04DB203A12
:1007C00000FA02F1002070479140C2F1200320FAA4
:1007D00003F3194390407047202A06DBCB17203AD9
:1007E00041FA02F043EAE07306E041FA02F3D04036
:1007F000C2F1200291400843194670470029A8BF62
:100800007047401C490008BF20F00100704710B439
:10081000B0FA80FC00FA0CF050EA010404BF10BCEE
:10082000704749B1CCF1200421FA04F411FA0CF11B
:1008300018BF012121430843A3EB0C01CB1D4FEA54
:1008400000614FEA102042BF002010BC704700EB4F
:10085000C35010440029A4BF10BC7047401C49007D
:1008600008BF20F0010010BC704710B5141E73F1D2
:10087000000408DA401C41F1000192185B411A4360
:1008800001D120F0010010BD2DE9F04D92469B46AC
:1008900011B1B1FA81F202E0B0FA80F22032904652
:1008A000FFF78BFF04460F4640EA0A0041EA0B01BE
:1008B00053465A46084313D0114653EA010019D053
:1008C000C8F14002504600F087F805460E465046F3
:1008D00059464246FFF771FF084305D0012004E066
:1008E00020463946BDE8F08D0020054346EAE07613
:1008F0002C4337430A986305E40AA0EB0800002262
:10090000FD0A44EA47540A3002D500200146E9E7CF
:10091000010510196941DDE9084500196941BDE883
:10092000F04DA2E770B521F0004303430CD0C1F3B2
:100930000A550024D5EB040564EB0403D617AD1A61
:10094000B34102DB0020014670BD201841EB02518B
:1009500070BDC1F30A52C1F3130140F2FF3341F4F9
:1009600080119A4202DA00200146704740F2334378
:100970009A42A2F2334202DC524200F02DB8FFF755
:100980001CBF000030B5041E71F1000404DB4FF001
:100990000044404264EB0101141E73F1000405DBC6
:1009A0001C464FF00043524263EB0403994208BFD8
:1009B000904230BD064C074D06E0E06840F0010370
:1009C00094E8070098471034AC42F6D3FFF7B4FB25
:1009D000BC4D0008DC4D0008202A04DB203A21FA37
:1009E00002F00021704721FA02F3D040C2F1200248
:1009F00091400843194670472DE9F04D00231A46EF
:100A00001B1A8A4103DB00200146BDE8F08DC1F3CB
:100A10000A52C1F3130141F480154FF0000BD107C6
:100A200002D100186D41521E0027044640F2FF110A
:100A3000384601EB620A3E468046024600204FF4EB
:100A40008011FFF7C9FFC2197141BB1846EB0100C5
:100A5000B4EB030C75EB000C04D3E41A65EB000552
:100A600017460E46241908F101006D4180463428CE
:100A7000E3DDF91946EB0600091BA84103D24FF04C
:100A8000FF32134601E0002213461BEB070046EB42
:100A90000A51BDE8F04DFFF7E8BE000010B54FF475
:100AA0000871084800F030F8012804D1054800F02A
:100AB00027F8054908804FF40871024800F006F84D
:100AC00010BD0000002401404000002000220A1256
:100AD000D3430360704721B1826842F00102826013
:100AE00003E0826822F00102826070470146002024
:100AF0008A6802F004020AB1012000E00020704779
:100B00000146C86C80B2704770B5024600200023D1
:100B100000240B125568CEB205EA060415681D4084
:100B200015B10CB1012000E0002070BD014600208D
:100B30008A6802F008020AB1012000E00020704734
:100B400010B50023CBB21AB144681C43446002E0E4
:100B500044689C43446010BD30B502460020002329
:100B600050680F4C20400D790C6844EA052420435E
:100B7000506090680B4C2040D1E902542C434D79D1
:100B800044EA450420439060D06A20F470000C7C55
:100B9000641EE4B2234340EA0350D06230BD00003B
:100BA000FFFEF0FFFDF7F1FFF0B504460D46002013
:100BB0000021092D11DDE068A5F10A0606EB4607C4
:100BC000072606FA07F18843A5F10A0606EB460652
:100BD00003FA06F10843E0600CE0206905EB4507E5
:100BE000072606FA07F1884305EB450603FA06F1E6
:100BF00008432061072A0FDA606B561E06EB860752
:100C00001F2606FA07F18843561E06EB860605FAEC
:100C100006F10843606322E00D2A0FDA206BD61F2D
:100C200006EB86071F2606FA07F18843D61F06EB58
:100C3000860605FA06F10843206310E0E06AA2F197
:100C40000D0606EB86071F2606FA07F18843A2F178
:100C50000D0606EB860605FA06F10843E062F0BDD4
:100C6000816841F008018160704721B1826842F4D7
:100C7000A002826003E0826822F4A00282607047D2
:100C8000816841F0040181607047000008B50121CE
:100C9000042001F0A9FB0220ADF8000010208DF81F
:100CA000030003208DF8020069460E4800F024FF7F
:100CB0000121042001F098FB0820ADF8000010206D
:100CC0008DF8030003208DF802006946054800F006
:100CD00013FF0221034800F0AEFF0821014800F095
:100CE000AAFF08BD0008014010B5FFF7CFFF0022A2
:100CF0001146D02000F088F93F220121D02000F0D9
:100D000083F900220221D02000F07EF910BD2DE9E8
:100D1000F04106460F4615461C4600F0F7F83046EF
:100D200000F0BAF800F03EF920B100F015F901200A
:100D3000BDE8F081384600F0AFF800F033F9052047
:100D400000F00CFB00F0E2F846F0010000F0A4F81F
:100D500000F028F90CE000F061F82870012C02D1B5
:100D600000F034F801E000F009F86D1C601E84B258
:100D7000002CF0D100F0F0F80020D9E710B50020E9
:100D80000F4908600F48006820F0F0000D49086026
:100D90000846006840F03000086000200A49C1F8A9
:100DA0008401022000F0DAFA0120054908600220DF
:100DB00000F0D4FA00200449C1F88C0110BD0000F5
:100DC0008C012142000801400000214210B50020A2
:100DD0000F4908600F48006820F0F0000D490860D6
:100DE0000846006840F03000086001200A49C1F858
:100DF0008401022000F0B2FA0120054908600220B7
:100E000000F0ACFA00200449C1F88C0110BD0000CC
:100E10008C012142000801400000214270B50024ED
:100E20001A48006820F0F000184908600846006879
:100E300040F040000860012015490860042000F0DF
:100E40008DFA00251AE06006040E002010490831D2
:100E50000860042000F082FA01200E49C1F88C01DC
:100E6000042000F07BFA0A488038006808B144F09A
:100E70000104042000F072FA681CC5B2082DE2DB00
:100E80000020034908310860204670BD0008014079
:100E9000840121420000214270B5044618480068D0
:100EA00020F0F000164908600846006840F0300065
:100EB000086000201349086000251EE0E00920B109
:100EC000012010490839086003E000200D49083965
:100ED00008606006040E022000F040FA0120094973
:100EE0000860022000F03AFA00200749C1F88C019E
:100EF000022000F033FA681CC5B2082DDEDB70BD9D
:100F0000000801408C0121420000214210B50F4829
:100F1000006820F0F0000D4908600846006840F0C5
:100F20003000086001200A4908600A49C1F88C01B4
:100F3000042000F013FA002005490860042000F0A6
:100F40000DFA00200349C1F88C0110BD00080140D2
:100F5000840121420000214210B50F48006820F0B2
:100F6000F0000D4908600846006840F03000086055
:100F700000200A4908600A49C1F88401042000F0F1
:100F8000EDF90120054908600549C1F884010420F4
:100F900000F0E4F910BD0000000801408C0121427E
:100FA0000000214210B500241448006820F0F00031
:100FB000124908600846006840F0400008600120BF
:100FC0000F49086000F0CAF901200E49C1F88C01F0
:100FD00000F0C4F907E0601CC4B2FA2C03DDFFF78F
:100FE000BBFF012010BD0648803800680028F2D100
:100FF00003490831086000BFF4E700000008014021
:10100000840121420000214270B506460C46154677
:10101000FFF77CFF3046FFF73FFFFFF7C3FF18B134
:10102000FFF79AFF012070BD2046FFF735FFFFF75D
:10103000B9FF052000F092F92846FFF72DFFFFF7D2
:10104000B1FFFFF789FF0020EDE7000008B501219F
:10105000082001F0C9F90120ADF8000010208DF83A
:10106000030003208DF802006946044800F044FDA7
:101070000121024800F0DDFD08BD0000000C014028
:1010800010B501211F4801F0D9FC002837D00121FB
:101090001C4801F0C1FC1C48007800B910BD1B4879
:1010A0000068401C1949086008460068B0F5966F52
:1010B0000BD3002008601648007808B9012000E032
:1010C00000201349087003F0BDFD12480068401C61
:1010D00010490860084600680F49096888420ED325
:1010E00000200C49086001210C4800F099FDC0F176
:1010F0000100C4B222460121084800F09EFD00BF55
:10110000CCE70000000400406500002058000020EB
:10111000640000205C00002060000020000C014002
:1011200010B50E48007820B901F042FC01200B49AF
:10113000087000200A4908700A4908600A490860D6
:1011400003F080FD0120094908700121084800F0E2
:1011500072FD0121074801F062FC10BD540000201F
:1011600064000020580000205C0000206500002082
:10117000000C01400004004010B500200549087033
:101180000021054801F04BFC0121044800F051FD0D
:1011900010BD00006500002000040040000C01406C
:1011A00000BFFEE710B510214D4800F044FD0421BA
:1011B0004B4800F040FD4B4890F9000000281ADD34
:1011C00049480068474991F90010884209D24021F6
:1011D000434800F030FD4FF40071444800F029FD11
:1011E00033E040213E4800F024FD4FF400713F48B9
:1011F00000F01FFD29E03B4890F9000000281BDAB1
:10120000384890F90000404237490968884209D9B6
:101210004021334800F00DFD4FF40071334800F0D9
:101220000AFD12E040212E4800F003FD4FF400714A
:101230002E4800F0FEFC08E04021294800F0F9FCAF
:101240004FF40071294800F0F4FC294890F900009F
:1012500000281ADD24480068254991F900108842C9
:1012600009D24FF40061234800F0E5FC01211C483D
:1012700000F0DFFC33E04FF400611E4800F0D9FCC1
:101280000121174800F0D5FC29E0194890F9000029
:1012900000281BDA164890F90000404212490968FC
:1012A000884209D94FF40061124800F0C2FC0121C4
:1012B0000B4800F0C0FC12E04FF400610D4800F054
:1012C000B8FC0121064800F0B4FC08E04FF40061CE
:1012D000084800F0AEFC0121014800F0AAFC10BD56
:1012E0000014014004000020000000200020014004
:1012F000050000200010014000200249087002494A
:10130000087070470400002005000020704710B5E9
:10131000044602E08C2000F007F8201EA4F1010131
:10132000CCB2F7D110BD000031B5009884B20121D4
:10133000094801F074FB2146074801F099FB03E0DE
:10134000054801F078FB0446012CF9DC0021024835
:1013500001F065FB38BD00000004004000EBC00157
:101360004FF0E02251611146096941F0010111611C
:1013700000BF4FF0E021096901F480310029F8D065
:1013800000214FF0E02211619161704700B50346E2
:1013900003E04FF47A70FFF7E1FF181EA3F1010399
:1013A000F7D100BD10B500240421124800F043FC21
:1013B00011A001F0C5FD4FF4FA60FFF7E7FF15E05B
:1013C000214611A001F0BCFD4FF4FA73002214A1D4
:1013D00014A000F037F828B1214613A001F0B0FDA9
:1013E000012010BD00F0A6F9601C44B2042CE7DB1C
:1013F0000020F6E7001C01400D0A4154B2E2CAD4B5
:101400002E2E2E2E2E0D0A000D0A4154B2E2CAD401
:10141000B4CECAFD2025642E2E2E2E2E2E0D0A00AF
:101420004F4B0000415400000D0A4154B2E2CAD4AF
:10143000C6F4B6AFB3C9B9A62025642E2E2E2E2E23
:101440002E0D0A002DE9F04106460C4615461F46B2
:101450002D48B0F800046FF30E002B49A1F80004EA
:1014600032462AA12B4801F0C8FC1CB915B901204D
:10147000BDE8F0813846FFF789FF00202249B1F826
:101480000014C1F30E01204A5054114622A001F06D
:1014900057FD1D48B0F800046FF30E001A49A1F87B
:1014A00000040846B0F8000420F40040A1F800044D
:1014B000B4B1ADB121461448FEF76AFE08B101206F
:1014C00000E0002040B929460F48FEF761FE08B150
:1014D000012000E0002008B10120C9E70020C7E793
:1014E00044B121460848FEF753FE08B10120BFE78A
:1014F0000020BDE729460448FEF74AFE08B1012056
:10150000B6E70020B4E700009405002025730D0A1B
:1015100000000000004800402573000010B586B0B0
:1015200004460CB1012000E00020024606A101A8FB
:1015300001F030FD4FF4FA73002207A101A8FFF774
:1015400081FF06B010BD000041542B4349504D555A
:10155000583D2564000000004F4B000008B50121F4
:10156000802000F041FF1020ADF800008DF803004E
:1015700003208DF802006946074800F0BDFA0121FA
:10158000802000F031FF0420ADF8000069460248D9
:1015900000F0B2FA08BD0000001C014010B5FFF7D2
:1015A000DDFF00F0DBF90421034800F044FB1021CB
:1015B000014800F03EFB10BD001C014030B59FB05B
:1015C00004460D462B46224606A101A801F0E2FC86
:1015D00041F28833002208A101A8FFF733FF1FB0B2
:1015E00030BD000041542B43574A41503D222573E2
:1015F000222C2225732200004F4B0000F0B5B9B019
:1016000006460F4614461D46642120A8FEF7B5FD88
:1016100016B1012E10D107E03B4614A214A120A858
:10162000009401F0B7FC08E03B4615A210A120A8E9
:10163000009401F0AFFC00E000BF00BF052D06DA0A
:1016400020AB2A460FA102A801F0A4FC04E020AAC6
:1016500011A102A801F09EFC4FF47A6312A216A118
:1016600002A8FFF7EFFE39B0F0BD00005443500070
:10167000222573222C222573222C257300000000C2
:101680005544500041542B43495053544152543D0A
:1016900025642C257300000041542B4349505354BA
:1016A0004152543D25730000414C5245415920435D
:1016B0004F4E4E45435400004F4B000010B50446BA
:1016C00024B1012C0AD0022C18D10FE040F6C4132B
:1016D0000BA20EA10EA0FFF7B5FE10BD40F6C4137D
:1016E00007A20AA10DA0FFF7ADFEF6E740F6C4136E
:1016F00003A206A10CA0FFF7A5FEEEE70020ECE791
:101700006E6F206368616E67650000004F4B0000DC
:1017100041542B43574D4F44453D310041542B43D9
:10172000574D4F44453D320041542B43574D4F4494
:10173000453D330010B50421054800F07AFA4FF416
:10174000FA70FFF723FE0421014800F074FA10BD7F
:10175000001C014010B54FF47A7300222AA12BA07F
:10176000FFF770FE4FF4FA63002227A12BA0FFF7CA
:1017700069FE4FF47A70FFF709FE2BA001F0E0FB41
:1017800030A001F0DDFB1021344800F054FA00BF16
:10179000FFF708FE0028FBD031A001F0D1FB00BF0D
:1017A0000020FFF78BFF0028FAD035A001F0C8FB1E
:1017B00000BF3AA13CA0FFF701FF0028F9D03CA0F0
:1017C00001F0BEFB00BF0020FFF7A8FE0028FAD002
:1017D0003DA001F0B5FB00BF052342A243A10020BC
:1017E000FFF70CFF0028F7D044A001F0A9FB00BFD1
:1017F00000F016F90028FBD047A001F0A1FB4CA097
:1018000001F09EFB10BD00004F4B000041542B43E4
:101810004950434C4F53453D3500000041542B4344
:1018200057514150000000000D0AD5FDD4DAC5E43F
:10183000D6C32045535038323636202E2E2E2E2E2B
:101840002E0D0A000D0ACAB9C4DC204553503832A7
:101850003636202E2E2E2E2E2E0D0A00001C014074
:101860000D0AD5FDD4DAC5E4D6C3B9A4D7F7C4A30D
:10187000CABD20535441202E2E2E2E2E2E0D0A008E
:101880000D0AD5FDD4DAC1ACBDD320576946692015
:101890002E2E2E2E2E2E0D0A000000006C79783090
:1018A0003630343132000000797578696E000000FE
:1018B0000D0ABDFBD6B9B6E0C1ACBDD3202E2E2E8D
:1018C0002E2E2E0D0A0000000D0AD5FDD4DAC1AC73
:1018D000BDD320536572766572202E2E2E2E2E2EAD
:1018E0000D0A0000333030320000000031302E315C
:1018F00039332E3137312E32303700000D0ABDF822
:10190000C8EBCDB8B4ABB7A2CBCDC4A3CABD202E13
:101910002E2E2E2E2E0D0A000D0AC5E4D6C320450C
:1019200053503832363620CDEAB1CF0D0A000000D0
:101930000D0ABFAACABCCDB8B4AB2E2E2E2E2E2EA9
:101940000D0A000010B50446224602A1024801F02B
:1019500054FA10BD257300000048004000B585B062
:101960000121880400F030FD0121082000F03CFD39
:101970004FF48060ADF8100018208DF8130003209C
:101980008DF8120004A91A4800F0B6F84FF4006070
:10199000ADF8100004208DF8130004A9144800F0DD
:1019A000ABF84FF4E13000900020ADF80400ADF842
:1019B0000600ADF80800ADF80C000C20ADF80A00E8
:1019C00069460C4801F0A4F9012240F2255109486A
:1019D00001F079F9012240F22441064801F073F93F
:1019E00000F00AF80121034801F02AF905B000BD12
:1019F000000C01400048004008B54FF4A06000F022
:101A0000BBFC27208DF8000000208DF801008DF828
:101A1000020001208DF80300684600F075FC08BD47
:101A200010B54FF4FA73002207A108A0FFF70AFDD2
:101A300008B9002010BD4FF4FA7308A202A108A053
:101A4000FFF700FDF6E700004F4B000041542B4329
:101A500049504D4F44453D31000000003E0000001C
:101A600041542B43495053454E44000010B54FF4A8
:101A7000806000F00FF828B14FF4806000F004F8A7
:101A800000F03AFA10BD00000149086070470000FC
:101A900014040140014600200022074B1B6803EAA2
:101AA0000102054B14331B680B4013B10AB101202E
:101AB00000E00020704700000004014010B5012143
:101AC000042000F091FC0121082000F08DFC012190
:101AD000102000F089FC0121202000F085FC01216C
:101AE000402000F081FC0121802000F07DFC0121DC
:101AF000080200F079FC10BD2DE9F04102460025F6
:101B00000026002000230024002791F803C00CF0D9
:101B10000F0591F803C00CF0100CBCF1000F03D0BE
:101B200091F802C04CEA050591F800C0BCF1000F25
:101B300031D0146800202BE04FF0010C0CFA00F3B8
:101B4000B1F800C00CEA03069E4220D183004FF09A
:101B50000F0C0CFA03F7BC4305FA03FC4CEA04042F
:101B600091F803C0BCF1280F06D14FF0010C0CFA1C
:101B700000FCC2F814C00AE091F803C0BCF1480FA1
:101B800005D14FF0010C0CFA00FCC2F810C0401C4B
:101B90000828D1D31460B1F800C0BCF1FF0F34DDC8
:101BA000546800202EE000F1080C4FF0010808FAFC
:101BB0000CF3B1F800C00CEA03069E4221D1830069
:101BC0004FF00F0C0CFA03F7BC4305FA03FC4CEA88
:101BD000040491F803C0BCF1280F05D100F1080CF2
:101BE00008FA0CF8C2F8148091F803C0BCF1480F51
:101BF00007D100F1080C4FF0010808FA0CF8C2F800
:101C00001080401C0828CED35460BDE8F081024605
:101C1000002093680B400BB1012000E000207047CA
:101C200002460020D3680B400BB1012000E00020E9
:101C3000704741617047016170470AB1016100E07E
:101C40004161704700BFFEE710B51148006820F4FD
:101C500070000F4908600846006840F440100860B2
:101C600000200C4908600C49C1F894010220FFF7DC
:101C700075FB0120074908600220FFF76FFB002079
:101C80000549C1F89C010120FFF768FB10BD000069
:101C9000000801409C0121420000214210B511487A
:101CA000006820F470000F4908600846006840F49E
:101CB0004010086000200C49086001200B49C1F861
:101CC00094010220FFF74AFB012007490860022027
:101CD000FFF744FB00200549C1F89C010120FFF7F4
:101CE0003DFB10BD000801409C0121420000214243
:101CF00070B500241648006820F47000144908608C
:101D00000846006840F4000008600020114908609F
:101D10000220FFF723FB002515E001200D49086094
:101D20006006040E0C48D0F8140108B144F0010418
:101D30000220FFF713FB0020064908600220FFF78E
:101D40000DFB681CC5B2082DE7DB204670BD000006
:101D5000000801409C0121420000214270B5044668
:101D60001948006820F470001749086008460068A8
:101D700040F44010086000201449086000251FE06E
:101D800004F0800020B1012010490839086003E008
:101D900000200E49083908606006040E0220FFF793
:101DA000DDFA0120094908600220FFF7D7FA002078
:101DB0000749C1F89C010220FFF7D0FA681CC5B2A0
:101DC000082DDDDB70BD0000000801409C012142B0
:101DD0000000214210B50E48006820F470000C4944
:101DE00008600846006840F4401008600120094976
:101DF00008600949C1F894010220FFF7AFFA0020FA
:101E00000449083908600220FFF7A8FA10BD000055
:101E1000000801409C0121420000214210B50E48FB
:101E2000006820F470000C4908600846006840F41F
:101E30004010086001200949086000200849C1F8E5
:101E400094010220FFF78AFA01200449083908604A
:101E50000220FFF783FA10BD000801409C012142D7
:101E60000000214210B5C8242048006820F470000A
:101E70001E4908600846006840F4401008600120D0
:101E80001B490860FFF76AFA01201A49C1F89C0152
:101E9000FFF764FA1548006820F4700013490860E1
:101EA0000846006840F4000008600120FFF756FA79
:101EB0000EE0601EC4B20120FFF750FA2CB90020DA
:101EC0000B4908310860012010BD0120FFF746FAD8
:101ED0000748803800680028EBD1054908310860C0
:101EE0000120FFF73BFA0020EEE700000008014068
:101EF000940121420000214270B500260F20FFF717
:101F000006FA4FF480614248FFF781FE012800D1B4
:101F100070BD28203F49087002E00120FFF7F7F963
:101F20004FF480613A48FFF772FE0028F5D0002494
:101F30003AE0002534E002E00120FFF7E8F94FF431
:101F400080613348FFF763FE0028F5D102E00120ED
:101F5000FFF7DDF94FF480612D48FFF758FE0028A8
:101F6000F5D007E00120FFF7D2F9701CC6B21E2E93
:101F700000DBCDE74FF480612548FFF748FE0028DD
:101F8000F0D12548005D401023490855082E04DB98
:101F90000846005D40F0800008550026681CC5B268
:101FA000082DC8DB601CC4B2042CC2DB1A48C07800
:101FB000C043C5B218488078A84200D0A8E71648A8
:101FC0008078432815D004DC15280AD0402818D181
:101FD00013E0442809D0462813D141200F49087046
:101FE00010E042200D4908700CE043200B490870B6
:101FF00008E044200949087004E0492007490870B6
:1020000000E085E700BF01200549087000BF7FE7B9
:10201000001401400B0000202F00002009000020C8
:102020002E00002008B50121842000F0DDF94FF4D6
:102030000060ADF8000048208DF8030069460248B2
:10204000FFF75AFD08BD0000001C014070B50025D7
:1020500000240AE04FF400610848FFF7D8FD01288A
:1020600001D1681CC5B2601CC4B2052CF2DB022D84
:1020700001DD012070BD0020FCE70000001C0140D4
:1020800000B585B00121480200F0AEF900200090B3
:102090008DF8040001208DF805004FF460200290B7
:1020A0000020039001208DF8100069461748FEF7C4
:1020B00053FD4FF4404000F07BF905230122092134
:1020C0001248FEF771FD01224FF408710F48FEF728
:1020D00037FD01210D48FEF7FEFC0C48FEF7C0FD60
:1020E00000BF0A48FEF722FD0028FAD10748FEF794
:1020F000C7FD00BF0548FEF7F9FC0028FAD1012111
:102100000248FEF7B2FD05B000BD0000002401400A
:1021100008B54FF4C06000F02FF912208DF80000D0
:1021200001208DF801008DF802008DF8030068464B
:1021300000F0EAF808BD000008B50121082000F011
:1021400053F90121102000F04FF90220ADF80000F2
:1021500000208DF8030069460648FFF7CDFC2020DB
:10216000ADF8000004208DF8030069460248FFF72F
:10217000C3FC08BD000C0140001001402DE9F05FD8
:102180004FF0000A27480088FEF776FA81464FF0A4
:102190008B41FEF7A2F88046FEF784FA064600223D
:1021A000214BFEF77FF90446FEF78FFA1F490860BE
:1021B00008460068FEF776FA064600221A4BFEF73C
:1021C0006EF90446FEF781FA81461949FEF753F885
:1021D0008046164801684046FEF77FF815490860BA
:1021E000154914480068FEF778F8824612491148EC
:1021F0000068FEF772F88346FEF754FA80460F4AED
:102200000F4B01F0F5FE06460E4A0F4BFEF74AF95A
:102210000446FEF75AFA0D49086008460068BDE812
:10222000F09F000040000020000014404400002007
:102230000000204148000020000010428FC2F52815
:102240005C8FFABFA4703D0AD78345404C00002044
:1022500010B5FFF771FFFFF713FFFFF759FF10BD30
:1022600000BFFEE708B54FF40050ADF800000220B3
:102270008DF8020010208DF8030069461B48FFF717
:102280003BFC4FF40060ADF8000069461748FFF7CB
:1022900033FC4FF40060ADF8000069461448FFF7C6
:1022A0002BFC0120ADF8000069461248FFF724FC22
:1022B0004020ADF8000069460E48FFF71DFC4FF4C2
:1022C0000070ADF8000069460848FFF715FC1020C3
:1022D000ADF8000069460748FFF70EFC0420ADF892
:1022E000000069460348FFF707FC08BD00200140D5
:1022F000001001400014014010B5FFF7B3FFFEF7D6
:10230000FBFF10BD7047000070B5002100230F22B5
:10231000C47804B3154C246804F4E064C4F5E064A4
:10232000210AC1F10403CA40447804FA03F1847815
:102330001440214309010E4C0678A155047804F09D
:102340001F050124AC4005786D11AD0005F1E025B5
:10235000C5F8004109E0047804F01F050124AC40F1
:10236000044D0678761145F8264070BD0CED00E06E
:1023700000E400E080E100E002490143024A11600C
:10238000704700000000FA050CED00E008B51C20C5
:102390008DF8000000208DF8010001208DF802006A
:1023A0008DF803006846FFF7AFFF08BD70470000D7
:1023B00001460020034A506820F440400843506022
:1023C000704700000010024029B1064AD26902435A
:1023D000044BDA6104E0034AD2698243014BDA61BB
:1023E000704700000010024029B1064A926902437A
:1023F000044B9A6104E0034A92698243014B9A615B
:10240000704700000010024030B500210022002477
:1024100000232D4D6D6805F00C0121B1042905D074
:10242000082923D105E0294D056022E0274D0560EC
:102430001FE0254D6D6805F47012234D6D6805F49D
:102440008034022505EB92421CB9214D55430560AD
:102450000BE01D4D6D6805F400351DB11C4D554355
:10246000056002E0194D5543056002E0174D056017
:1024700000BF00BF144D6D6805F0F0010909154D4E
:102480006B5C0568DD4045600F4D6D6805F4E061EB
:10249000090A104D6B5C4568DD4085600A4D6D682A
:1024A00005F46051C90A0B4D6B5C4568DD40C560A1
:1024B000054D6D6805F44041890B074D6B5CC5689F
:1024C000B5FBF3F5056130BD0010024000127A0043
:1024D00000093D001A0000202A00002008B54FF432
:1024E0008070ADF8000048208DF8030003208DF8BF
:1024F000020069461B48FFF7FFFA1020ADF8000004
:1025000048208DF8030003208DF802006946154825
:10251000FFF7F2FA4020ADF8000048208DF80300E4
:1025200003208DF8020069460E48FFF7E5FA802087
:10253000ADF8000048208DF8030003208DF802005C
:1025400069460948FFF7D8FA0420ADF80000482092
:102550008DF8030003208DF8020069460148FFF75B
:10256000CBFA08BD00200140001001400D488069F1
:1025700040F004000B4988610B4800680B49084093
:102580000949086008460068094908430649086087
:1025900005480C30006840F0A00003490C31086089
:1025A000704700000010024000080140FFFF0F0FBD
:1025B000000030302DE9F04F8DB081460C460025EB
:1025C0000026002008900990FFF704FC002141EA52
:1025D0004401C8B2FFF7C2FBFFF744FC2C20FFF711
:1025E000BDFBFFF73FFC0620FFF7B8FBFFF73AFC07
:1025F000FFF714FC1420FEF7C9FEFFF7EBFB0121E7
:1026000001EB4401C8B2FFF7A9FBFFF72BFC28BB85
:10261000FFF76EFBADF82800FFF716FBFFF768FB2E
:10262000ADF82A00FFF710FBFFF762FBADF82C00B6
:10263000FFF70AFBFFF75CFBADF82E00FFF704FB8A
:10264000FFF756FBADF83000FFF7FEFAFFF750FB3F
:10265000ADF83200FFF722FBFFF7E0FBBDF82A00E0
:10266000BDF8281040EA01201FFA80FABDF83000BA
:10267000BDF82E1040EA01201FFA80FB5046FDF7FE
:10268000FBFF0190FEF70EF8074600222F4BFDF7E7
:1026900009FF00222E4BCDE90201FDF775FF002254
:1026A0002C4BCDE90401FDF7F7FECDE90601FEF75D
:1026B0000CF805465846FDF7DFFF0390FDF7F2FFE3
:1026C00007460022244BFDF7EDFE0022204BCDE90A
:1026D0000401FDF759FFCDE90601FDF7F6FF0646B7
:1026E0001E492846FEF718F826D81D492846FEF749
:1026F00009F821D800213046FEF70EF81CD81949F8
:102700003046FDF7FFFF17D8174805608660304652
:10271000FDF7C8FFCDE906012846FDF7C3FF0746D0
:102720000B46DDE906013A46CDE900010FA1134849
:1027300000F030FC089509964FF0000BDA46DDE911
:102740000801C9E900010DB0BDE8F08F00E0654067
:10275000E0FFEF4000804640000059400000A0C16B
:102760000000FA420000C8425C05002025362E32E7
:10277000662A432025362E32662525006C0500206A
:102780007047000008B50120ADF8000010208DF85A
:10279000030003208DF8020069460448FFF7ACF9F6
:1027A00001210248FFF747FA08BD00000008014078
:1027B00010B500F001F810BD0CB50020019000909C
:1027C0003348006840F480303149086000BF304829
:1027D000006800F4003000900198401C01900098BF
:1027E00018B90198B0F5A06FF1D12948006800F43C
:1027F000003010B10120009001E00020009000980E
:10280000012843D12348006840F0100021490860A6
:102810000846006820F0030008600846006840F0A1
:10282000020008601A484068194948600846406834
:1028300048600846406840F4806048600846406848
:1028400020F47C1048600846406840F4E810486076
:102850000846006840F08070086000BF0C480068BF
:1028600000F000700028F9D00948406820F003000B
:10287000074948600846406840F00200486000BFD1
:102880000348406800F00C000828F9D10CBD000096
:1028900000100240002002407047000010B51148AF
:1028A000006840F001000F490860084640680E4982
:1028B00008400C494860084600680C49084009492E
:1028C00008600846006820F48020086008464068D8
:1028D00020F4FE0048604FF41F008860FFF768FF97
:1028E00010BD0000001002400000FFF8FFFFF6FEE0
:1028F00010B50121880700F0A1F830B30121880745
:1029000000F08AF811480078401C10490870084609
:1029100000780A2819DB002008700D480068401C68
:102920000B4908600B480078401C0A4908700A48A7
:102930000068401C0849086005480068322802D336
:10294000002003490860FEF72DFC10BD07000020A1
:102950000000002006000020340000200EB50121F8
:102960000846FFF731FD6320ADF804004720ADF8BD
:1029700000000020ADF80600ADF8020069464FF0F7
:10298000804000F077F80121880700F045F8012227
:102990001146900700F063F80121880700F03FF826
:1029A000FFF7F4FC0EBD10B5FEF76AFB10BD00008A
:1029B0001FB501210220FFF707FD40F2F310ADF82B
:1029C00008004720ADF804000020ADF80A00ADF87B
:1029D000060001A90F4800F04DF801210D4800F054
:1029E0001BF8012211460B4800F039F81D208DF824
:1029F000000001208DF8010000208DF80200012068
:102A00008DF803006846FFF77FFC0021014800F0C5
:102A100006F81FBD00040040CA430282704721B17E
:102A2000028842F00102028004E002884FF6FE7341
:102A30001A40028070470146888C704730B50246C4
:102A4000002000230024158A05EA0103958905EA80
:102A5000010413B10CB1012000E0002030BD1AB117
:102A600083890B43838102E083898B438381704791
:102A700081847047002202881D4B98420ED01D4B66
:102A800098420BD0B0F1804F08D01B4B984205D034
:102A90001A4B984202D01A4B984204D14FF68F73CA
:102AA0001A404B881A43174B984207D0164B98424E
:102AB00004D04FF6FF431A40CB881A4302808B881C
:102AC00083850B8803850A4B98420BD0094B9842AB
:102AD00008D00E4B984205D00D4B984202D00D4BBA
:102AE000984201D10B7A038601238382704700004C
:102AF000002C014000340140000400400008004068
:102B0000000C004000100040001400400040014054
:102B1000004401400048014010B540F225511D48D5
:102B200000F0A7F810B31B4800F05EF9C4B21A48D1
:102B3000008800F40040C8B91748008800F48040BD
:102B400060B10A2C03D000201349088020E012480D
:102B5000008840F400401049088019E00D2C06D18F
:102B60000D48008840F480400B49088010E00A4876
:102B70000088C0F30D0009490C5407480088401C28
:102B80000549088008460088C72801DD0020088024
:102B900010BD0000003801403C00002094040020DB
:102BA00010B540F22551204800F063F8E0B11E480E
:102BB00000F01AF9C4B21D48B0F80004C0F30E00CA
:102BC00040F2FF3188420FDA63B21849B1F80014BD
:102BD000C1F30E00411C154AB2F8002461F30E0245
:102BE0001249A1F800240B5440F224410E4800F091
:102BF00040F8012817D10D48B0F8000420F4004037
:102C000000F500400949A1F80004074800F0ECF87D
:102C1000C4B207A10548FDF7BBFA08B1012000E0E6
:102C200000200649087010BD0048004094050020AF
:102C3000434C4F5345440D0A000000005000002053
:102C400021B1828942F40052828104E082894DF6EA
:102C5000FF731A408281704702460020B1F5007F61
:102C600000D100BF13880B400BB1012000E0002011
:102C7000704770B50246002400230025002040F66E
:102C80006A16B14200D100BFC1F3421501F01F0323
:102C9000012606FA03F3012D02D19689334006E09E
:102CA000022D02D1168A334001E0968A33400C127D
:102CB000012606FA04F41688344013B10CB1012041
:102CC00000E0002070BDF0B503460024002600257A
:102CD000002040F66A17B94200D100BF1846C1F380
:102CE000421401F01F06012707FA06F5012C01D155
:102CF0000C3004E0022C01D1103000E014301AB185
:102D000007682F43076002E00768AF430760F0BD24
:102D10002DE9F04786B005460E460024A24600BFC6
:102D2000A1460027B08900B100BF2F462C8A4CF67F
:102D3000FF700440F08804432C82AC894EF6F310F7
:102D40000440B08831890843718908430443AC8149
:102D5000AC8A4FF6FF400440B0890443AC8201A81E
:102D6000FFF752FB1F48874202D1DDF810A001E0B7
:102D7000DDF80CA0A88900F4004040B10AEBCA00BD
:102D800000EB0A1031684900B0FBF1F807E00AEBEC
:102D9000CA0000EB0A1031688900B0FBF1F864202A
:102DA000B8FBF0F004012009642101FB1089A88917
:102DB00000F4004040B1322000EBC900B0FBF1F05C
:102DC00000F00700044308E0322000EB0910642102
:102DD000B0FBF1F000F00F0004432C8106B0BDE819
:102DE000F08700000038014001468888C0F30800E1
:102DF0007047C1F30802828070470FB470B586B087
:102E000006460CA801907AE00B9800785C281DD14A
:102E10000B98401C0B9090F900006E2809D0722886
:102E20000FD10D213046FFF7E4FF0B98401C0B90AB
:102E30000BE00A213046FFF7DCFF0B98401C0B909B
:102E400003E00B98401C0B9000BF51E00B980078FA
:102E5000252845D10B98401C0B9090F90000642860
:102E60001AD0732837D1019810C801900DE094F959
:102E7000000081B23046FFF7BCFF00BF8021304622
:102E8000FFF7EAFE0028F9D0641C20780028EED174
:102E90000B98401C0B9022E0019820C801900A2258
:102EA00002A9284600F020FE02AC0DE094F90000D3
:102EB00081B23046FFF79DFF00BF80213046FFF70B
:102EC000CBFE0028F9D0641C20780028EED10B98A6
:102ED000401C0B9003E00B98401C0B9000BF07E0D8
:102EE0000B9810F9012B91B20B903046FFF781FF40
:102EF00000BF80213046FFF7AFFE0028F9D00B98C5
:102F00000078002880D106B070BC5DF814FB00BFCB
:102F1000FEE7000008B50120ADF8000010208DF894
:102F2000030003208DF8020069460448FEF7E4FD23
:102F300001210248FEF77FFE08BD0000000C0140A1
:102F40000FB4054B10B503A9044A029800F098F994
:102F500010BC5DF814FB0000CD3A000838000020DA
:102F60000FB47CB50C0009AD01D0611E00E000215A
:102F7000CDE90001064B6A462946089800F080F921
:102F8000002C02D0009A002111707CBC5DF814FB6B
:102F9000873900080FB4084B10B504A902AA03989A
:102FA00000F06EF9044602A9002000F0F7FC20466C
:102FB00010BC5DF814FB00009D390008490050EA80
:102FC000C12018BF04204A0D18BF40F0010040F294
:102FD000FF72B2EB515F08BF40F00200012808BF4A
:102FE000052070472DE9F0414F1E00EBC701044654
:102FF000D1E9000115461E4637F006020DD02A46DB
:103000003346FDF74FFA7F1E04EBC703D3E90023D5
:10301000FDF7A1F937F00602F1D1022F25D0042FD8
:1030200013D0062F18BFBDE8F0812A463346FDF7BE
:1030300039FAD4E90A23FDF78EF92A463346FDF71B
:1030400031FAD4E90823FDF786F92A463346FDF71D
:1030500029FAD4E90623FDF77EF92A463346FDF71F
:1030600021FAD4E90423FDF776F92A463346FDF721
:1030700019FAD4E90223FDF76EF92A463346FDF723
:1030800011FAD4E90023BDE8F041FDF764B900006E
:103090000022134610460149FDF776BA0000F03FC2
:1030A000FDF759B90022134610461146FDF76CBAD8
:1030B00040F2013200204FF0E041FDF733BC000048
:1030C000024A00201107FDF72DBC000001FDFFFFA3
:1030D00002E008C8121F08C1002AFAD170477047E1
:1030E000002001E001C1121F002AFBD1704700003F
:1030F0000149086070470000680000202DE9FF5F6B
:1031000082B00021DDE90430020DDDF840B0034358
:1031100018D044F61050A2F2FF3242431514119811
:1031200001281FD0A5EB0B00401C5FEA000A4FF0FE
:1031300000064E4FDFF83891B046504615D5CAF11B
:10314000000413E0119801244AA3012801D16FEA79
:103150000B010298119AC0E90031C0E9024206B0A1
:10316000BDE8F09FCBF10000DFE704460021404AB4
:10317000491842EB0450CDE9001012E0E00707D0F7
:1031800032463B4640464946FDF78CF98046894623
:1031900032463B4610461946FDF784F906460F466F
:1031A0006410002CEAD1DDE90401DDE90023BAF165
:1031B000000F06DAFDF776F942464B46FDF772F945
:1031C00005E0FDF7E1F942464B46FDF7DDF904461F
:1031D0000E460022284BFDF7D5FB03D84FF0FF30F9
:1031E000014607E00022254B20463146FDF7B3F8A3
:1031F000FDF7AFFB102409E0002C0ADB0A220023B4
:10320000FDF7AAFA039B30321A55641E50EA0102F8
:10321000F2D1641C039AC4F111031444119A012AD7
:1032200003D0012208430DD10AE0084304D0002056
:103230004FF0110B119072E7A3EB0B056D1E0DE023
:103240005B4504DD4FF0000205F1010504E003DAFF
:103250004FF00002A5F10105002AECD00298119967
:10326000C0E90231C0E9004579E7000000001440E0
:103270000000F03F300000000000F0430000E03F9D
:103280002DE9FF4F95B09A46884606460025EEE1A7
:10329000252877D100242746F94A0121039400E02C
:1032A000044316F8013F203B01FA03F01042F7D126
:1032B00030782A2811D06FF02F033078A0F1300237
:1032C000092A16D8039A44F0020402EB820203EBA7
:1032D00042021044761C0390EFE758F8042B039247
:1032E000002A03DA504244F40054039044F00204EC
:1032F000761C30782E2816D116F8010F44F00404FD
:103300002A280DD06FF02F023078A0F13003092B5E
:1033100009D807EB870302EB4303C718761CF3E7D2
:1033200058F8047B761C30786C280FD006DC4C28CB
:1033300017D068280DD06A2814D104E0742810D062
:103340007A280FD10DE044F400140AE044F480140C
:1033500001E044F440147278824202D104F58014F2
:10336000761C761C307866280BD013DC582877D072
:1033700009DC002875D04528F6D04628F4D0472827
:103380001AD193E118E0632835D0642879D06528F4
:1033900012D18BE1702873D008DC6728F1D069283E
:1033A0006FD06E280DD06F2806D1ACE073282CD0DA
:1033B000752874D0782853D05246179990476D1CC1
:1033C00054E1C4F30250022809D003280DD0D8F8E4
:1033D000001004280DD00D6008F1040846E1D8F86B
:1033E0000010EA17C1E90052F6E7D8F800100D8086
:1033F000F2E70D70F0E718F8041B8DF800100020BC
:103400008DF80100EB46012003E058F804BB4FF0B3
:10341000FF3061074FF0000102D40DE009F1010116
:103420008946B9420FDA8145F8DB1BF809100029FB
:10343000F4D108E009F1010189468142FADB1BF869
:1034400009100029F6D103985346A0EB090721463D
:103450003846179A00F080FA284400EB090507E087
:1034600044E008E10DE01BF8010B52461799904724
:10347000B9F10109F7D2534621463846179AF2E0CE
:1034800039E00A21C4F302524FF0000B0091022AE6
:1034900006D058F8040BC117032A09D00AE023E02C
:1034A00008F1070020F00702F2E80201904605E06B
:1034B00000B2C117042A01D140B2C117002906DAAF
:1034C0000A460021404261EB02012D2202E0220562
:1034D00004D52B228DF80420012203E0E20701D05D
:1034E0002022F7E7914657E00A2100E010214FF033
:1034F000000B00910BE010214FF0000B44F004048E
:103500000827009103E008204FF0000B0090C4F35F
:103510000252022A05D058F8040B0021032A08D0D1
:1035200008E008F1070020F00702F2E802019046E7
:1035300003E080B2042A00D1C0B24FF00009220794
:103540002AD53278702A07D0DDF800C08CF0100C34
:103550005CEA0B0C05D00EE040228DF8042001221D
:1035600008E050EA010306D030238DF804308DF8CE
:10357000052002229146009B83F0080353EA0B03C7
:103580000AD150EA010201D1620705D530228DF837
:1035900004204FF001097F1E3278582A04D039A246
:1035A0000C920CAA02920BE03BA2F9E75B46009A50
:1035B000FDF7D2F80C9B9B5C029A521E029213708C
:1035C00050EA0102F2D1029804A9081A00F1200B76
:1035D000600702D524F4803400E001275F4502DD56
:1035E000A7EB0B0000E0002000EB0B01009003981C
:1035F0004944401A0390E00306D453462146179AE3
:10360000039800F0A9F90544002706E001A85246F6
:10361000C05D179990476D1C7F1C4F45F6DBE0039A
:103620000CD553462146179A039800F095F90544A6
:1036300004E030205246179990476D1C0099481EAF
:1036400000900029F5DC08E00298029952460078C3
:10365000491C0291179990476D1CBBF10001ABF119
:10366000010BF1DC5BE100F065F90544761C307874
:1036700000287FF40DAE19B02846BDE8F08F000099
:103680000928010030313233343536373839616238
:1036900063646566000000003031323334353637FC
:1036A000383941424344454600000000600700D4D9
:1036B000062708F1070020F00700F0E80223804603
:1036C00003F0004C5FEA0C0001D097A009E0200550
:1036D00001D596A005E0E00701D095A001E0AFF28A
:1036E0004C001390307823F0004365280CD006DCA2
:1036F000452809D046281DD047287FD13BE06628C1
:1037000018D067287AD136E00021112F01DB112073
:1037100000E0781CCDE9000104A90CA8FFF7EEFC3D
:10372000DDE90D010C9A4FF0000B07F10109109231
:1037300000914EE04FF000400097CDE9011004A940
:103740000CA8FFF7DBFCDDE90D020C9B0F994FF095
:10375000000B91461093009211B9791C00EB0109FE
:10376000B7EB090003D4C0F1FF3B07F10109A9EB56
:103770000700019042E0012F00DA01270021112FFC
:1037800001DD112000E03846CDE9000104A90CA8B4
:10379000FFF7B4FCDDE90D010C9A00914FF0000B2E
:1037A000B946109221070FD4009A4A4503DA914690
:1037B00001E0A9F10109B9F1010F05DD109AA9F1A4
:1037C0000101515C3029F4D0B84202DA10F1040F43
:1037D00003DA0121CDE9011010E0002803DC834465
:1037E000A9EB000102E0411C494500DD8946A0EB40
:1037F0000B00401C01904FF000400290200705D4C0
:103800000198484502DB4FF0FF30019000208DF811
:103810004B0002980DF14B07B0F1004F25D002206C
:103820000C902B200D90029800280CDA4042029058
:103830002D200D9007E00A210298FCF777FF303128
:10384000029007F8011D0C99481E0C900029F2DC2B
:1038500002980028EFD1791E0D980870307800F09A
:10386000200040F0450007F8020D11A8C01BC01D44
:1038700002901398007800B1012000EB0901019833
:1038800001EBE071029801440398401A401E039036
:10389000E00306D453462146179A039800F05CF8DB
:1038A00005441398007818B15246179990476D1C3B
:1038B000E00323D553462146179A039800F04CF8AD
:1038C00005441BE0BBF1000F07DB0098584504DD01
:1038D0001098179910F80B0001E017993020524604
:1038E000904701980BF1010B401E05F10105019075
:1038F00004D12E205246179990476D1CB9F1000152
:10390000A9F10109DEDC05E017F8010B5246179911
:1039100090476D1C0299481E02900029F4DC534622
:103920002146179A03989EE62D0000002B00000008
:10393000200000002DE9F041044600251E461746F0
:10394000880404D405E039462020B0476D1C641E6D
:10395000F9D52846BDE8F0812DE9F041044600255F
:103960001E469046C80301D5302700E02027880472
:1039700004D505E041463846B0476D1C641EF9D5B4
:103980002846BDE8F0814A68002A06D00A68531C20
:103990000B6010704868401E486070470A68531CEE
:1039A0000B60107070472DE9F04FA1B006460F462E
:1039B000802301AA1946D020FDF7A9F900241BE0B5
:1039C00060064FEA106901A810F8091001AA09F170
:1039D0000100105C41EA0028404600F0F5FF8346F4
:1039E000FCF741FE82464FF07A51FCF744FC054655
:1039F00046F82450601CC4B2BC42E1DB21B0BDE8F3
:103A0000F08F4FF0E020006920F004004FF0E0213B
:103A1000086170472DE9FC5F83460D461646002479
:103A2000311B281924A2FFF79BFA04444FF0000928
:103A300035E0311B281920A2FFF792FA04444FF019
:103A4000000A18E00BEB491151F82A00FCF72AFE96
:103A5000CDE90001311B281918A2FFF781FA0444AF
:103A6000BAF1070F05DA311B281916A2FFF778FA09
:103A700004440AF1010ABAF1080FE3DB311B2819EB
:103A800011A2FFF76DFA0444B9F1070F05DA311BF3
:103A900028190CA2FFF764FA044409F10109B9F1ED
:103AA000080FC6DB311B281907A2FFF759FA044497
:103AB0002846BDE8FC9F00005B000000252E326612
:103AC000000000002C0000005D00000000BF054A5F
:103AD000128802F04002002AF9D0C2B2014B1B1D2D
:103AE0001A80704700380140F0B503460D4616466F
:103AF000002729460A2E03D0002008702846F0BD72
:103B000033B9302001F8010B002008702846F6E791
:103B1000002B03DA2D2001F8010B5B4242F21072F8
:103B20000EE093FBF2F404B93FB104F1300040B26F
:103B300001F8010B04FB123301270A2092FBF0F27B
:103B4000002AEEDC002008702846D8E7ADF51A7D83
:103B50004FF0000A002016901790159014901390C3
:103B60001290E248E249C861002081F82400FFF782
:103B700048FFFDF7A3FFFFF7CDF9FEF7EFFEFEF7D5
:103B8000BBFBFEF7FFFD4FF4E13001F00BF8FDF752
:103B90007DF8FEF7A3FCFDF759FAFEF743FAFEF7AE
:103BA00057FBFEF7E3FCFDF79FF8FDF7F7FCFDF789
:103BB000D1FD9AE1CF4804681298201A4EF6602190
:103BC000884212D31294CA49C869CB49FCF7A4FDB4
:103BD00008D2C749C8694FF07C51FCF746FBC4497D
:103BE000C86102E0C448C249C8611598201AC828B3
:103BF0007ED31594FEF72AFA08B9012000E00020D0
:103C0000BB4908740846007C08B1BCA000E0BDA018
:103C10000146B7481130FCF7CDFA442110A8FEF751
:103C2000C9FCDDE91001CDE91601B1491798C8605A
:103C300016988860FEF7A2FA8246B4495046FCF70F
:103C40006BFD01D2DFF8C8A2A948C0F804A040214A
:103C500058A8FFF7A8FE4FF48062AE4958A8FFF7B6
:103C6000D9FE0020A249086281460EE058A850F80B
:103C700029509F48016A2846FCF74EFD01D29C4816
:103C8000056209F1010000F0FF09B9F1400FEDDB19
:103C90009749086AA049FCF73FFD01D2012000E0E6
:103CA000002083469248007C90B19C48006810B97F
:103CB0009A48046011E09A48007870B99748006803
:103CC000201A9849884208D301209549087004E0D9
:103CD00000209249086092490870BBF1000F0BD098
:103CE0009148007803280ADA8F480078401C00E0E9
:103CF0006AE08D49087002E000208B4908708A480C
:103D00000078032801DB012000E00020989087491B
:103D10005046FCF701FD0CD285480078032804DAF0
:103D200083480078401C824908700020814908704F
:103D30000EE080480078032805DA7E480078401CB1
:103D40007C49087004E000207949087079490870BE
:103D500077480078032801DB012000E00020764945
:103D600008706349086A7549FCF7D6FC0CD27448A0
:103D7000007848BB01207249087002205C4981F834
:103D80002400FDF7CDF92BE06B48007860B16C485A
:103D90000078C8B901206A4908700320544981F8A5
:103DA0002400FDF7BDF91BE05D48007868B19898E4
:103DB00058B16348007838B90120614908704C490E
:103DC00081F82400FDF7ACF90AE05D48007838B1CD
:103DD00000205B490870464981F82400FDF7CCF9C2
:103DE0001398201A40F6B83188423BD3139455A05B
:103DF000FFF7A6F83E48007C08B15CA000E05CA09C
:103E000001465CA0FFF79CF839498868FCF74AFC3A
:103E100005462A460B465BA0FFF792F83449C8686E
:103E2000FCF740FC05462A460B465BA0FFF788F8E6
:103E30002F494868FCF736FC05462A460B465AA02F
:103E4000FFF77EF833495FA0FFF77AF82849086A40
:103E5000FCF728FC05462A460B465EA0FFF770F8E3
:103E600000F0E4FD1498201A40F2DC5188423CD363
:103E700014941F49C869FCF715FC05460E461C49F9
:103E8000086AFCF70FFC0746884619494868FCF7A2
:103E900009FCCDE910011649C868FCF703FCCDE91F
:103EA0000E0113498868FCF7FDFBCDE90878CDE9E0
:103EB0000A56CDE90C010E4890F824000C49113146
:103EC000144ACDE904210690DDE91001CDE9020193
:103ED000DDE90E01CDE90001444918A8DDE90C2314
:103EE000FFF758F818A8FDF72DFD63E60000B24271
:103EF0006C040020340000200000204166616C73D7
:103F000065000000747275650000000000007A45CD
:103F10000A3180456C00002000003442100000206F
:103F200014000020E0930400150000200000164358
:103F30001700002019000020180000200000704227
:103F4000160000200D0A3D3D3D3D3D3D3D3D3D3DC2
:103F500020B4ABB8D0C6F7CAFDBEDD203D3D3D3D27
:103F60003D3D3D3D3D3D0D0A00000000CEDE000020
:103F7000D3D00000CAC7B7F1D3D0C8CBA3BA25733A
:103F80000D0A0000CEC2B6C8A3BA252E326620A103
:103F9000E3430D0A00000000CAAAB6C8A3BA252E42
:103FA00032662025250D0A00BFC9C8BCC6F8CCE57D
:103FB000C5A8B6C8A3BA252E32662070706D0D0A4A
:103FC00000000000BAECCDE2BED8D5F3A3BA257349
:103FD0000D0A0000BED8D5F3D7EEB4F3CEC2B6C8F2
:103FE000D6B5A3BA252E32660D0A0000184D00087A
:103FF0002DE9F04D1D460C4698B0174621F00041C2
:1040000023F00043002814BF4FF0010C4FF0000CC8
:104010000CEB440CFE4A0CEB02064FEA620C6645C0
:104020002BD33E0018BF012606EB45061644F94A7D
:10403000964222D3F84A53EA070C02D0944205D1A3
:1040400048B918B000201146BDE8F08D002808BF1F
:104050004FF0000C01D04FF0010C0CEB440212F5B4
:10406000001F0AD8002F14BF4FF0010C4FF0000CB6
:104070000CEB450212F5001F07D918B03A462B4643
:104080002146BDE8F04DFFF70BB80022DFF88CA306
:10409000002CB8BF534526DADFF884C36345A8BFB8
:1040A000022220DADFF870C39C451CDCDFF874C301
:1040B0000CEB235CBCF1140F08DDCCF1340627FABD
:1040C00006FC0CFA06F6BE420DD108E05FB9CCF151
:1040D000140623FA06FC0CFA06F69E4203D10CF0F5
:1040E0000102C2F1020251EA000C19D1002D17DAC7
:1040F000002C18BF022A01D0012A07D00220FEF7A7
:10410000F7FF18B0BDE8F04DFEF7C2BF0220FEF782
:10411000EFFFFEF7BDFF18B081F00041BDE8F08D64
:10412000B7F1000C6CD1534525D104F1804212F552
:10413000801201BF00280020B74918B008BFBDE8B1
:10414000F08DB548884207DC002DA1BF60462946A6
:1041500018B0BDE8F08D07E0281E05DA80F00041B8
:1041600018B06046BDE8F08DAF497944D1E900014F
:1041700018B0BDE8F08DDFF8A0C2634525D1002D51
:104180001FDA19B1514512D1D8B909E0002840F021
:10419000EC82A24A214618B062F31E01BDE8F08D00
:1041A0000020214618B060F31E01BDE8F08D08DA4A
:1041B00018B02346BDE8F04D024600206146FCF7EA
:1041C000E3B918B02146BDE8F08D514518DAB5F1D4
:1041D000804F0DD0A5F1005CBCF1FF5C10D1B4F1B3
:1041E000000C0DDB18B06146BDE8F04D00F0F8BBE7
:1041F000234618B00246BDE8F04D1946FCF752B907
:10420000060024F0004C3BD1D9B1514533D1002CEC
:1042100006DD002DA1BF0020514618B0BDE8F08D8D
:10422000002C01DD002D1BDB002C13DA002D11DB2F
:10423000012A4FF0000014BF78497C4918B0BDE84E
:10424000F08D022A18BF002C0AD0012A08D1002CB8
:1042500006DA0AE0002CB8BF002D11DA012A04D0DA
:10426000002018B00146BDE8F08D18B000204FF0D6
:104270000041BDE8F08DA1F14050B0F17F601AD04F
:10428000012000EBE47050EA020421D0624C521E7F
:104290004FF0000B104304BF4FF0000B644C654817
:1042A00083427CDD644A654893421FDD884217DB08
:1042B000002D25DB37E0002C00DA4AB1022A0CBFC2
:1042C00001204FF0FF3018B0BDE8F04DFCF7D9B930
:1042D0000120FEF70DFF18B0BDE8F04DFEF7E2BE7D
:1042E0004D4A8A4202DC002D0ADC1CE0814202DADF
:1042F000002D18DA04E0484B994220DD002D12DD34
:104300000220FEF7F5FEFEF7D3FE05460E4600221C
:10431000534658462146FCF7C5F818B066F31E010F
:104320002846BDE8F08D0220FEF7E2FEFEF7C8FE4B
:104330000A46214618B062F31E01BDE8F08D002246
:1043400030466146FCF7A8F880460E466FF0010241
:10435000FCF7E8FA4FF05532394BFCF7A0F842462B
:104360003346FCF79FF80022364BFCF798F882465C
:1043700042463346049110461946FCF793F85246DC
:10438000049BFCF78FF88A4600904FF0C0422E4BFA
:1043900040463146FCF786F82C4A2B4B00E027E0DC
:1043A000CDE9060151460098FCF77CF88246019160
:1043B000274A284B40463146FCF774F85246019B89
:1043C000FCF76AF882460B4602460591DDE90601D4
:1043D000FBF7C1FFDDE90623002688463046FCF7DF
:1043E0005BF85246059BFCF75AF8024600F07EB98E
:1043F0000020B1F5801F07DA352230466146FCF710
:1044000091FA06466FF0340000EB215024E00000E2
:10441000FFFF1F00FFFF0F000000F03F0000F07FD4
:104420000000404301FCFFFFA20B00000000F0FF72
:104430000000F0BF0000E0410000F043FFFFEF3F4D
:104440005555D53F0000E03F4715F73FFE822B65ED
:1044500044DF5DF80BAE543EA0F2FF300190C1F393
:10446000130040F07F6141F040510291FE498842C3
:10447000D8BF002004DDFD498142C8BF012001DD15
:104480000D9008E000200D900198401C01900298CA
:10449000A0F5801002900299F54878440B910D998F
:1044A00000EBC100D0E900230F9330460A920B992C
:1044B000FBF7F2FFCDE90601DDE90A2130460F9B4B
:1044C000FBF749FF02460B460020EA49FCF75CF87F
:1044D000059102460B460090DDE90601FBF7E2FF7D
:1044E0001490E5488A464FF0000878440299006825
:1044F00012904FF0005040EA61010D980F9B01EBC4
:10450000804000F5002109910A9A1298FBF7C4FF38
:1045100032460B9BFBF7C3FF42465346FBF7C2FFF5
:104520000646029140465146099B129AFBF7BAFF94
:10453000DDE90623FBF7B3FF3246029BFBF7ACFF36
:10454000059B009AFBF7AEFF0091149A0490534626
:1045500010461946FBF7A6FF06460246C7480B461B
:10456000029106217844FEF73DFDCDE90510029B3E
:10457000324610461946FBF795FFDDE90532FBF799
:1045800091FF05910646534640461946149AFBF79B
:10459000E2FE009B049AFBF785FF3246059BFBF782
:1045A000DAFECDE905104246534610461946FBF7A0
:1045B00079FF0022B24B02910A90FBF7CCFEDDE9B5
:1045C0000532FBF7C8FE0E464246AD4B4046FBF7B0
:1045D00063FF029B0A9AFBF75FFFDDE90532FBF7F9
:1045E0005EFF424602910A90334610465146FBF761
:1045F00059FFCDE906015346149A02990A98FBF730
:1046000051FF8A4602903346424600990498FBF7D0
:1046100049FF5346029AFBF79EFE82460B4602462E
:104620000591DDE90601FBF796FEDDE90623002092
:1046300088460646FBF730FF5246059BFBF72FFFE7
:10464000824609914FF060428E4B30464146FBF75F
:1046500029FF049006918C4A8A4B50460999FBF732
:1046600021FF82460291894A894B30464146FBF739
:1046700019FF5246029BFBF76EFE864B7B440D9A58
:1046800003EBC203D3E90023FBF765FE0E9007910D
:104690000198FBF7F6FF0591DDE9061382460E9AB5
:1046A0000498FBF758FE7C4A7A440D9B02EBC30347
:1046B000D3E9002300930292FBF74DFE5246059B7F
:1046C000FBF749FE0026884652463046059BFBF71D
:1046D000E3FE009B029AFBF7DFFE069B049AFBF7C2
:1046E000DBFE079B0E9AFBF7DAFE024600200B4624
:1046F000029038462946FBF7D5FE824601912B46AB
:1047000038461946029AFBF7C7FE32464346FBF786
:10471000C9FE5246019BFBF71EFE07468A463246FB
:10472000434629460298FBF7BDFE05460E463A462B
:104730005346FBF710FE594A8846914221DBA8EB0D
:10474000020353EA000210D12A463346FBF7A4FEC7
:10475000CDE90401524A534B38465146FBF7FBFD65
:10476000DDE90423FCF70EF921D20220FEF7C0FC9C
:10477000FEF79EFC0A46214618B062F31E01BDE812
:10478000F08D494B28F000429A4210D3474A08EB7B
:10479000020353EA00027FF4C6AD2A463346FBF714
:1047A0007BFE3A465346FCF7EDF87FF6BCAD00229F
:1047B000019228F000403E493E4A01EB20518242DE
:1047C00023DA481C4FF4801121FA00F040443A4AA1
:1047D000C0F30A517A44394BA1F2FF31CB4020EAB1
:1047E0000303C0F3130040F48010C1F11401C8406A
:1047F00012680190B8F1000FBCBF404201902846FA
:104800003146FBF749FE05460E462A4633463846F2
:104810005146FBF7A0FD4FF000084246284B4046AA
:104820000591FBF73FFECDE90601264A264B40469F
:104830000599FBF737FE009102902A463346404621
:104840000599FBF729FE3A465346FBF728FE1F4A17
:104850001F4BFBF727FE009B029AFBF77CFD0746E8
:10486000884602460B4635E08E9803007AB60B0068
:10487000EA0700000000F03F220800005007000097
:104880000000084009C7EE3FFD033ADCF5015B1468
:10489000E02F3EBE28060000EC050000000090401E
:1048A000FE822B654715973C00CC904000346F3F4B
:1048B00001FCFFFF0000E03F38050000FFFF0F0094
:1048C000432EE63F396CA80C615C20BEEF39FAFE3E
:1048D000422EE63FDDE90601FBF73DFDDDE906235B
:1048E00005460E46FBF7D8FD3A464346FBF7D7FD93
:1048F0000F462A463346009010461946FBF7D2FD74
:10490000824602462E4888460B4605217844FEF72B
:1049100069FB52464346FBF7C5FD2A463346FBF783
:10492000BEFD80468A463B4628463146009AFBF744
:10493000B9FD3B46009AFBF70EFD06910090002260
:104940004FF0804340465146FBF7A6FD0F460C90C2
:104950004246534628463146FBF7A4FD3B460C9A97
:10496000FBF712FE069B009AFBF796FD2A4633469C
:10497000FBF792FD0022134BFBF791FD05460198D2
:104980000E4601EB00510815002810DC2846314680
:10499000019AFBF7C7FFFEF711FB042808BFFEF7DB
:1049A0008FFB28463146019AFBF7BCFF05460B46B4
:1049B00018B02A4658462146BDE8F04DFBF772BDB7
:1049C000D80300000000F03F0246C2F30B0101F4DF
:1049D000006018B141F4704000B2704708B2FCE7C3
:1049E0002DE9F04106460F46FCF706F8041E0D4679
:1049F00018BF0120284320F00040C0F17F6000F183
:104A0000E040C00F0ED0301C18BF0120384320F00A
:104A10000040C0F17F6000F1E040C00F04BF012002
:104A2000FEF766FB20462946BDE8F08170B52548B3
:104A300090F82400022803D123A0FEF781FA0FE0AA
:104A4000204890F82400012803D125A0FEF778FA29
:104A500006E01C4890F8240010B925A0FEF770FA73
:104A60001849C869FBF71EFE044622460B4624A0DF
:104A7000FEF766FA134890F82400022803D125A017
:104A8000FEF75EFA19E00F4890F82400012803D1E0
:104A900028A0FEF755FA10E00A4890F824000328F1
:104AA00003D130A0FEF74CFA07E0064890F8240046
:104AB000012802D11FA0FEF743FA31A0FEF740FA09
:104AC00070BD00006C040020BBF0D4D6B7E7CFD592
:104AD000A3BAB3ACB8DFA3A1A3A1A3A10D0A0000A0
:104AE000BBF0D4D6B7E7CFD5A3BAB8DFA3A10A00ED
:104AF000BBF0D4D6B7E7CFD5A3BAB5CD0A00000036
:104B0000B5E7B3D8B5E7C1BFA3BA252E31662525D1
:104B10000D0A0000BEAFB8E6A3BABBB7BEB3C4DA95
:104B2000C8A1C5AFC9E8B1B8CEC2B6C8B9FDB8DF33
:104B3000A3A10A00BEAFB8E6A3BAC8A1C5AFC9E831
:104B4000B1B8CEB4B6CFB5E7A3ACCEDEC8CBD7B440
:104B5000CCACD2D1B3D6D0F835B7D6D6D3A3A10A30
:104B600000000000BEAFB8E6A3BABCECB2E2B5BD2F
:104B7000D1CCCEEDC5A8B6C8B3ACB1EAA3A10A00AA
:104B80003D3D3D3D3D3D3D3D3D3D3D3D3D3D3D3D55
:104B90003D3D3D3D3D3D3D3D3D3D3D3D3D3D3D3D45
:104BA0000D0A000010B586B00446012144F204004D
:104BB000FDF71AFC4FF40070ADF8140003208DF8D7
:104BC000160018208DF8170005A91C48FCF794FF63
:104BD0004FF48060ADF8140004208DF8170005A98B
:104BE0001648FCF789FF25208DF8000003208DF87A
:104BF00001008DF8020001208DF803006846FDF7E2
:104C000083FB01940020ADF80800ADF80A00ADF870
:104C10000C00ADF810000C20ADF80E0001A90848FA
:104C2000FEF776F8012240F225510548FEF74BF8D1
:104C300001210348FEF704F806B010BD000801404A
:104C4000003801400C49097811B140F2DC5101E013
:104C50004FF4FA7108464100084AB2FBF1F14FF4F3
:104C6000FA72B1FBF2F1064A11601146096809B9FE
:104C700001211160704700006400002040420F00D5
:104C80006000002000000000000000000000F03F75
:104C9000000000000000F83F0000000000000000DD
:104CA0000000004003B8E23F0000000000000000E8
:104CB00006D0CF43EBFD4C3E033333333333E33F76
:104CC000FFAB6FDBB66DDB3F4D268F515555D53FA2
:104CD00001411DA96074D13F65DBC9934A86CD3F70
:104CE000EF4E454A287ECA3F3E5555555555C53F5E
:104CF00093BDBE166CC166BF2CDE25AF6A56113F50
:104D0000F16BD2C541BDBBBED0A4BE726937663E51
:104D100000000000000000007B2274797065223AD8
:104D20002273656E736F725F64617461222C2274EA
:104D3000656D7065726174757265223A252E3266F2
:104D40002C2268756D6964697479223A252E326661
:104D50002C22736D6F6B655F6C6576656C223A25EE
:104D60002E32662C226D61785F74656D70223A2553
:104D7000732C2268756D616E5F646574656374651C
:104D800064223A25732C22666972655F7269736BBF
:104D9000223A25642C22656E765F73746174757394
:104DA000223A22252E3266222C22626174746572A8
:104DB00079223A252E31667D00000000DC4D000886
:104DC000000000206C000000D0300008484E0008B1
:104DD0006C0000202C110000E030000800000000F2
:104DE00028280000004949000000000000000000E1
:104DF00000000000000000000000010203040102A6
:104E00000304060708090204060800000000000069
:104E10000000000000000000000000000000000092
:104E20000000000000000000000000000000000082
:104E30000000000000000000000000000000000072
:084E400000000000000000006A
:0400000508000149A5
:00000001FF
